{"contracts/PoseidonHasher.sol":{"PoseidonHasher":{"abi":[{"inputs":[{"internalType":"bytes32[2]","name":"inputs","type":"bytes32[2]"}],"name":"poseidon","outputs":[{"internalType":"bytes32","name":"","type":"bytes32"}],"stateMutability":"pure","type":"function"}],"evm":{"bytecode":{"linkReferences":{},"object":"608060405234801561001057600080fd5b5060d68061001f6000396000f3fe6080604052348015600f57600080fd5b506004361060285760003560e01c8063299e566014602d575b600080fd5b60686038366004607a565b60408051823560208083019190915292830135818301528151808203830181526060909101909152805191012090565b60405190815260200160405180910390f35b600060408284031215608b57600080fd5b82604083011115609a57600080fd5b5091905056fea2646970667358221220d140dcd29c7478ddcecc3f4d5d88818070bc15af953fbf73cc36d496b5c0afc764736f6c63430008140033","opcodes":"PUSH1 0x80 PUSH1 0x40 MSTORE CALLVALUE DUP1 ISZERO PUSH2 0x10 JUMPI PUSH1 0x0 DUP1 REVERT JUMPDEST POP PUSH1 0xD6 DUP1 PUSH2 0x1F PUSH1 0x0 CODECOPY PUSH1 0x0 RETURN INVALID PUSH1 0x80 PUSH1 0x40 MSTORE CALLVALUE DUP1 ISZERO PUSH1 0xF JUMPI PUSH1 0x0 DUP1 REVERT JUMPDEST POP PUSH1 0x4 CALLDATASIZE LT PUSH1 0x28 JUMPI PUSH1 0x0 CALLDATALOAD PUSH1 0xE0 SHR DUP1 PUSH4 0x299E5660 EQ PUSH1 0x2D JUMPI JUMPDEST PUSH1 0x0 DUP1 REVERT JUMPDEST PUSH1 0x68 PUSH1 0x38 CALLDATASIZE PUSH1 0x4 PUSH1 0x7A JUMP JUMPDEST PUSH1 0x40 DUP1 MLOAD DUP3 CALLDATALOAD PUSH1 0x20 DUP1 DUP4 ADD SWAP2 SWAP1 SWAP2 MSTORE SWAP3 DUP4 ADD CALLDATALOAD DUP2 DUP4 ADD MSTORE DUP2 MLOAD DUP1 DUP3 SUB DUP4 ADD DUP2 MSTORE PUSH1 0x60 SWAP1 SWAP2 ADD SWAP1 SWAP2 MSTORE DUP1 MLOAD SWAP2 ADD KECCAK256 SWAP1 JUMP JUMPDEST PUSH1 0x40 MLOAD SWAP1 DUP2 MSTORE PUSH1 0x20 ADD PUSH1 0x40 MLOAD DUP1 SWAP2 SUB SWAP1 RETURN JUMPDEST PUSH1 0x0 PUSH1 0x40 DUP3 DUP5 SUB SLT ISZERO PUSH1 0x8B JUMPI PUSH1 0x0 DUP1 REVERT JUMPDEST DUP3 PUSH1 0x40 DUP4 ADD GT ISZERO PUSH1 0x9A JUMPI PUSH1 0x0 DUP1 REVERT JUMPDEST POP SWAP2 SWAP1 POP JUMP INVALID LOG2 PUSH5 0x6970667358 0x22 SLT KECCAK256 0xD1 BLOCKHASH 0xDC 0xD2 SWAP13 PUSH21 0x78DDCECC3F4D5D88818070BC15AF953FBF73CC36D4 SWAP7 0xB5 0xC0 0xAF 0xC7 PUSH5 0x736F6C6343 STOP ADDMOD EQ STOP CALLER "},"methodIdentifiers":{"poseidon(bytes32[2])":"299e5660"}}}}}