{"contracts/Groth16Verifier.sol":{"XnetPrivacyPoolFactory":{"abi":[{"inputs":[{"internalType":"contract IVerifier","name":"_verifier","type":"address"},{"internalType":"contract IHasher","name":"_hasher","type":"address"}],"stateMutability":"nonpayable","type":"constructor"},{"anonymous":false,"inputs":[{"indexed":false,"internalType":"uint256","name":"denomination","type":"uint256"},{"indexed":false,"internalType":"address","name":"pool","type":"address"}],"name":"PoolCreated","type":"event"},{"inputs":[{"internalType":"uint256","name":"","type":"uint256"}],"name":"allPools","outputs":[{"internalType":"address","name":"","type":"address"}],"stateMutability":"view","type":"function"},{"inputs":[{"internalType":"uint256","name":"denomination","type":"uint256"}],"name":"createPool","outputs":[{"internalType":"address","name":"","type":"address"}],"stateMutability":"nonpayable","type":"function"},{"inputs":[],"name":"getAllPools","outputs":[{"internalType":"address[]","name":"","type":"address[]"}],"stateMutability":"view","type":"function"},{"inputs":[],"name":"hasher","outputs":[{"internalType":"contract IHasher","name":"","type":"address"}],"stateMutability":"view","type":"function"},{"inputs":[{"internalType":"uint256","name":"","type":"uint256"}],"name":"pools","outputs":[{"internalType":"address","name":"","type":"address"}],"stateMutability":"view","type":"function"},{"inputs":[],"name":"verifier","outputs":[{"internalType":"contract IVerifier","name":"","type":"address"}],"stateMutability":"view","type":"function"}],"evm":{"bytecode":{"linkReferences":{},"object":"60c060405234801561001057600080fd5b506040516116f13803806116f183398101604081905261002f9161005e565b6001600160a01b039182166080521660a052610098565b6001600160a01b038116811461005b57600080fd5b50565b6000806040838503121561007157600080fd5b825161007c81610046565b602084015190925061008d81610046565b809150509250929050565b60805160a0516116276100ca6000396000818161011401526101dc015260008181606c01526101bb01526116276000f3fe608060405234801561001057600080fd5b50600436106100625760003560e01c80632b7ac3f31461006757806341d1de97146100ab5780638259e6a0146100be578063ac4afa38146100d1578063d88ff1f4146100fa578063ed33639f1461010f575b600080fd5b61008e7f000000000000000000000000000000000000000000000000000000000000000081565b6040516001600160a01b0390911681526020015b60405180910390f35b61008e6100b9366004610362565b610136565b61008e6100cc366004610362565b610160565b61008e6100df366004610362565b6000602081905290815260409020546001600160a01b031681565b6101026102f3565b6040516100a2919061037b565b61008e7f000000000000000000000000000000000000000000000000000000000000000081565b6001818154811061014657600080fd5b6000918252602090912001546001600160a01b0316905081565b6000818152602081905260408120546001600160a01b0316156101b75760405162461bcd60e51b815260206004820152600b60248201526a506f6f6c2065786973747360a81b604482015260640160405180910390fd5b60007f00000000000000000000000000000000000000000000000000000000000000007f0000000000000000000000000000000000000000000000000000000000000000843360405161020990610355565b6001600160a01b039485168152928416602084015260408301919091529091166060820152608001604051809103906000f08015801561024d573d6000803e3d6000fd5b5060008481526020818152604080832080546001600160a01b0386166001600160a01b0319918216811790925560018054808201825595527fb10e2d527612073b26eecdfd717e6a320cf44b4afac2b0732d9fcbe2b7fa0cf6909401805490941681179093558051878152918201929092529192507f65fc0eb45954044fb55e1b01344d5d72fbfdf88e732d955f73bb7fb2bcc131e9910160405180910390a192915050565b6060600180548060200260200160405190810160405280929190818152602001828054801561034b57602002820191906000526020600020905b81546001600160a01b0316815260019091019060200180831161032d575b5050505050905090565b611229806103c983390190565b60006020828403121561037457600080fd5b5035919050565b6020808252825182820181905260009190848201906040850190845b818110156103bc5783516001600160a01b031683529284019291840191600101610397565b5090969550505050505056fe60e06040523480156200001157600080fd5b5060405162001229380380620012298339810160408190526200003491620001fe565b60008211620000895760405162461bcd60e51b815260206004820152601860248201527f44656e6f6d696e6174696f6e206d757374206265203e20300000000000000000604482015260640160405180910390fd5b6001600160a01b0384811660805283811660a05260c0839052600080546001600160a01b03191691831691909117815580607d8101558060696000015560015b601463ffffffff821610156200013a57620000e5828062000156565b915081607d8263ffffffff16601581106200010457620001046200025a565b015581606963ffffffff8316601481106200012357620001236200025a565b015580620001318162000270565b915050620000c9565b5062000147818062000156565b60035550620002ef9350505050565b60a05160408051808201825284815260208101849052905163014cf2b360e51b81526000926001600160a01b03169163299e5660916200019a9190600401620002a2565b602060405180830381865afa158015620001b8573d6000803e3d6000fd5b505050506040513d601f19601f82011682018060405250810190620001de9190620002d5565b9392505050565b6001600160a01b0381168114620001fb57600080fd5b50565b600080600080608085870312156200021557600080fd5b84516200022281620001e5565b60208601519094506200023581620001e5565b6040860151606087015191945092506200024f81620001e5565b939692955090935050565b634e487b7160e01b600052603260045260246000fd5b600063ffffffff8083168181036200029857634e487b7160e01b600052601160045260246000fd5b6001019392505050565b60408101818360005b6002811015620002cc578151835260209283019290910190600101620002ab565b50505092915050565b600060208284031215620002e857600080fd5b5051919050565b60805160a05160c051610ee76200034260003960008181610238015281816103910152818161059701526106f10152600081816103220152610a6701526000818161015a01526104bf0152610ee76000f3fe6080604052600436106100fe5760003560e01c8063b214faa511610095578063e829558811610064578063e8295588146102f0578063ed33639f14610310578063f178e47c14610344578063fc7e9c6f14610364578063fcc0be6b1461037a57600080fd5b8063b214faa51461027e578063ba70f75714610291578063c2b40ae4146102a6578063cd87a3b4146102c657600080fd5b80636d9833e3116100d15780636d9833e3146101d6578063839df945146101f65780638bca6d161461022657806390eeb02b1461026857600080fd5b806317cc915c146101035780632b7ac3f314610148578063570ca735146101945780636650aebb146101b4575b600080fd5b34801561010f57600080fd5b5061013361011e366004610ae4565b60686020526000908152604090205460ff1681565b60405190151581526020015b60405180910390f35b34801561015457600080fd5b5061017c7f000000000000000000000000000000000000000000000000000000000000000081565b6040516001600160a01b03909116815260200161013f565b3480156101a057600080fd5b5060005461017c906001600160a01b031681565b3480156101c057600080fd5b506101d46101cf366004610b2a565b61038f565b005b3480156101e257600080fd5b506101336101f1366004610ae4565b61068d565b34801561020257600080fd5b50610133610211366004610ae4565b60676020526000908152604090205460ff1681565b34801561023257600080fd5b5061025a7f000000000000000000000000000000000000000000000000000000000000000081565b60405190815260200161013f565b34801561027457600080fd5b5061025a60015481565b6101d461028c366004610ae4565b6106ef565b34801561029d57600080fd5b5061025a61087a565b3480156102b257600080fd5b5061025a6102c1366004610ae4565b610898565b3480156102d257600080fd5b506102db606481565b60405163ffffffff909116815260200161013f565b3480156102fc57600080fd5b5061025a61030b366004610ae4565b6108af565b34801561031c57600080fd5b5061017c7f000000000000000000000000000000000000000000000000000000000000000081565b34801561035057600080fd5b5061025a61035f366004610ae4565b6108bf565b34801561037057600080fd5b5061025a60025481565b34801561038657600080fd5b506102db601481565b7f000000000000000000000000000000000000000000000000000000000000000081106104035760405162461bcd60e51b815260206004820152601860248201527f46656520657863656564732064656e6f6d696e6174696f6e000000000000000060448201526064015b60405180910390fd5b60008481526068602052604090205460ff16156104525760405162461bcd60e51b815260206004820152600d60248201526c105b1c9958591e481cdc195b9d609a1b60448201526064016103fa565b61045b8561068d565b6104965760405162461bcd60e51b815260206004820152600c60248201526b155b9adb9bdddb881c9bdbdd60a21b60448201526064016103fa565b604080518082018252868152602081018690529051637ae4eb4f60e11b81526001600160a01b037f0000000000000000000000000000000000000000000000000000000000000000169163f5c9d69e916104f8918c918c918c91600401610bba565b602060405180830381865afa158015610515573d6000803e3d6000fd5b505050506040513d601f19601f820116820180604052508101906105399190610c28565b6105785760405162461bcd60e51b815260206004820152601060248201526f24b73b30b634b2102d2590383937b7b360811b60448201526064016103fa565b6000848152606860205260408120805460ff191660011790556105bb827f0000000000000000000000000000000000000000000000000000000000000000610c67565b6040519091506001600160a01b0385169082156108fc029083906000818181858888f193505050501580156105f4573d6000803e3d6000fd5b508115610633576040516001600160a01b0384169083156108fc029084906000818181858888f19350505050158015610631573d6000803e3d6000fd5b505b604080516001600160a01b03868116825260208201889052918101849052908416907fe9e508bad6d4c3227e881ca19068f099da81b5164dd6d62b2eaf1e8bc6c349319060600160405180910390a2505050505050505050565b60008161069c57506000919050565b6001545b600381606481106106b3576106b3610c7a565b015483036106c45750600192915050565b806000036106d0575060645b806106da81610c90565b91505060015481036106a05750600092915050565b7f000000000000000000000000000000000000000000000000000000000000000034146107515760405162461bcd60e51b815260206004820152601060248201526f15dc9bdb99c8161390c8185b5bdd5b9d60821b60448201526064016103fa565b60008181526067602052604090205460ff16156107b05760405162461bcd60e51b815260206004820152601960248201527f436f6d6d69746d656e7420616c7265616479206578697374730000000000000060448201526064016103fa565b6107bc60146002610d8b565b600254106108025760405162461bcd60e51b815260206004820152601360248201527213595c9adb19481d1c9959481a5cc8199d5b1b606a1b60448201526064016103fa565b600061080d826108cf565b60008381526067602052604090819020805460ff191660011790555190915082907fa945e51eec50ab98c161376f0db4cf2aeba3ec92755fe2fcd388bdbbb80ff1969061086e908490429063ffffffff929092168252602082015260400190565b60405180910390a25050565b600060036001546064811061089157610891610c7a565b0154905090565b600381606481106108a857600080fd5b0154905081565b607d81601581106108a857600080fd5b606981601481106108a857600080fd5b600280546000916108e290601490610d8b565b8163ffffffff16106109255760405162461bcd60e51b815260206004820152600c60248201526b151c9959481a5cc8199d5b1b60a21b60448201526064016103fa565b8083600080805b601463ffffffff821610156109e057610946600286610db3565b63ffffffff1660000361099457839250607d8163ffffffff166015811061096f5761096f610c7a565b015491508360698263ffffffff166014811061098d5761098d610c7a565b01556109b5565b60698163ffffffff16601481106109ad576109ad610c7a565b015492508391505b6109bf8383610a3b565b93506109cc600286610dd6565b9450806109d881610df9565b91505061092c565b50600180546000916064916109f491610e1c565b6109fe9190610e2f565b600181905590508360038260648110610a1957610a19610c7a565b0155610a26866001610e43565b63ffffffff1660025550939695505050505050565b60408051808201825283815260208101839052905163014cf2b360e51b81526000916001600160a01b037f0000000000000000000000000000000000000000000000000000000000000000169163299e566091610a9a91600401610e67565b602060405180830381865afa158015610ab7573d6000803e3d6000fd5b505050506040513d601f19601f82011682018060405250810190610adb9190610e98565b90505b92915050565b600060208284031215610af657600080fd5b5035919050565b8060408101831015610ade57600080fd5b80356001600160a01b0381168114610b2557600080fd5b919050565b6000806000806000806000806101a0898b031215610b4757600080fd5b610b518a8a610afd565b975060c089018a811115610b6457600080fd5b60408a019750610b748b82610afd565b96505061010089013594506101208901359350610b946101408a01610b0e565b9250610ba36101608a01610b0e565b915061018089013590509295985092959890939650565b61014081016040808784378083018660005b6002811015610be957838284379183019190830190600101610bcc565b505050808560c08501375061010082018360005b6002811015610c1c578151835260209283019290910190600101610bfd565b50505095945050505050565b600060208284031215610c3a57600080fd5b81518015158114610c4a57600080fd5b9392505050565b634e487b7160e01b600052601160045260246000fd5b81810381811115610ade57610ade610c51565b634e487b7160e01b600052603260045260246000fd5b600081610c9f57610c9f610c51565b506000190190565b600181815b80851115610ce2578160001904821115610cc857610cc8610c51565b80851615610cd557918102915b93841c9390800290610cac565b509250929050565b600082610cf957506001610ade565b81610d0657506000610ade565b8160018114610d1c5760028114610d2657610d42565b6001915050610ade565b60ff841115610d3757610d37610c51565b50506001821b610ade565b5060208310610133831016604e8410600b8410161715610d65575081810a610ade565b610d6f8383610ca7565b8060001904821115610d8357610d83610c51565b029392505050565b6000610adb63ffffffff841683610cea565b634e487b7160e01b600052601260045260246000fd5b600063ffffffff80841680610dca57610dca610d9d565b92169190910692915050565b600063ffffffff80841680610ded57610ded610d9d565b92169190910492915050565b600063ffffffff808316818103610e1257610e12610c51565b6001019392505050565b80820180821115610ade57610ade610c51565b600082610e3e57610e3e610d9d565b500690565b63ffffffff818116838216019080821115610e6057610e60610c51565b5092915050565b60408101818360005b6002811015610e8f578151835260209283019290910190600101610e70565b50505092915050565b600060208284031215610eaa57600080fd5b505191905056fea264697066735822122085f488bb2764b46ea289ea35b65c3bbd45f18ba151084afddc9b2332656fe88764736f6c63430008140033a26469706673582212203af8df58d7aca5234613eb93611e1893271c835da1a3eb151f7552859c8258df64736f6c63430008140033","opcodes":"PUSH1 0xC0 PUSH1 0x40 MSTORE CALLVALUE DUP1 ISZERO PUSH2 0x10 JUMPI PUSH1 0x0 DUP1 REVERT JUMPDEST POP PUSH1 0x40 MLOAD PUSH2 0x16F1 CODESIZE SUB DUP1 PUSH2 0x16F1 DUP4 CODECOPY DUP2 ADD PUSH1 0x40 DUP2 SWAP1 MSTORE PUSH2 0x2F SWAP2 PUSH2 0x5E JUMP JUMPDEST PUSH1 0x1 PUSH1 0x1 PUSH1 0xA0 SHL SUB SWAP2 DUP3 AND PUSH1 0x80 MSTORE AND PUSH1 0xA0 MSTORE PUSH2 0x98 JUMP JUMPDEST PUSH1 0x1 PUSH1 0x1 PUSH1 0xA0 SHL SUB DUP2 AND DUP2 EQ PUSH2 0x5B JUMPI PUSH1 0x0 DUP1 REVERT JUMPDEST POP JUMP JUMPDEST PUSH1 0x0 DUP1 PUSH1 0x40 DUP4 DUP6 SUB SLT ISZERO PUSH2 0x71 JUMPI PUSH1 0x0 DUP1 REVERT JUMPDEST DUP3 MLOAD PUSH2 0x7C DUP2 PUSH2 0x46 JUMP JUMPDEST PUSH1 0x20 DUP5 ADD MLOAD SWAP1 SWAP3 POP PUSH2 0x8D DUP2 PUSH2 0x46 JUMP JUMPDEST DUP1 SWAP2 POP POP SWAP3 POP SWAP3 SWAP1 POP JUMP JUMPDEST PUSH1 0x80 MLOAD PUSH1 0xA0 MLOAD PUSH2 0x1627 PUSH2 0xCA PUSH1 0x0 CODECOPY PUSH1 0x0 DUP2 DUP2 PUSH2 0x114 ADD MSTORE PUSH2 0x1DC ADD MSTORE PUSH1 0x0 DUP2 DUP2 PUSH1 0x6C ADD MSTORE PUSH2 0x1BB ADD MSTORE PUSH2 0x1627 PUSH1 0x0 RETURN INVALID PUSH1 0x80 PUSH1 0x40 MSTORE CALLVALUE DUP1 ISZERO PUSH2 0x10 JUMPI PUSH1 0x0 DUP1 REVERT JUMPDEST POP PUSH1 0x4 CALLDATASIZE LT PUSH2 0x62 JUMPI PUSH1 0x0 CALLDATALOAD PUSH1 0xE0 SHR DUP1 PUSH4 0x2B7AC3F3 EQ PUSH2 0x67 JUMPI DUP1 PUSH4 0x41D1DE97 EQ PUSH2 0xAB JUMPI DUP1 PUSH4 0x8259E6A0 EQ PUSH2 0xBE JUMPI DUP1 PUSH4 0xAC4AFA38 EQ PUSH2 0xD1 JUMPI DUP1 PUSH4 0xD88FF1F4 EQ PUSH2 0xFA JUMPI DUP1 PUSH4 0xED33639F EQ PUSH2 0x10F JUMPI JUMPDEST PUSH1 0x0 DUP1 REVERT JUMPDEST PUSH2 0x8E PUSH32 0x0 DUP2 JUMP JUMPDEST PUSH1 0x40 MLOAD PUSH1 0x1 PUSH1 0x1 PUSH1 0xA0 SHL SUB SWAP1 SWAP2 AND DUP2 MSTORE PUSH1 0x20 ADD JUMPDEST PUSH1 0x40 MLOAD DUP1 SWAP2 SUB SWAP1 RETURN JUMPDEST PUSH2 0x8E PUSH2 0xB9 CALLDATASIZE PUSH1 0x4 PUSH2 0x362 JUMP JUMPDEST PUSH2 0x136 JUMP JUMPDEST PUSH2 0x8E PUSH2 0xCC CALLDATASIZE PUSH1 0x4 PUSH2 0x362 JUMP JUMPDEST PUSH2 0x160 JUMP JUMPDEST PUSH2 0x8E PUSH2 0xDF CALLDATASIZE PUSH1 0x4 PUSH2 0x362 JUMP JUMPDEST PUSH1 0x0 PUSH1 0x20 DUP2 SWAP1 MSTORE SWAP1 DUP2 MSTORE PUSH1 0x40 SWAP1 KECCAK256 SLOAD PUSH1 0x1 PUSH1 0x1 PUSH1 0xA0 SHL SUB AND DUP2 JUMP JUMPDEST PUSH2 0x102 PUSH2 0x2F3 JUMP JUMPDEST PUSH1 0x40 MLOAD PUSH2 0xA2 SWAP2 SWAP1 PUSH2 0x37B JUMP JUMPDEST PUSH2 0x8E PUSH32 0x0 DUP2 JUMP JUMPDEST PUSH1 0x1 DUP2 DUP2 SLOAD DUP2 LT PUSH2 0x146 JUMPI PUSH1 0x0 DUP1 REVERT JUMPDEST PUSH1 0x0 SWAP2 DUP3 MSTORE PUSH1 0x20 SWAP1 SWAP2 KECCAK256 ADD SLOAD PUSH1 0x1 PUSH1 0x1 PUSH1 0xA0 SHL SUB AND SWAP1 POP DUP2 JUMP JUMPDEST PUSH1 0x0 DUP2 DUP2 MSTORE PUSH1 0x20 DUP2 SWAP1 MSTORE PUSH1 0x40 DUP2 KECCAK256 SLOAD PUSH1 0x1 PUSH1 0x1 PUSH1 0xA0 SHL SUB AND ISZERO PUSH2 0x1B7 JUMPI PUSH1 0x40 MLOAD PUSH3 0x461BCD PUSH1 0xE5 SHL DUP2 MSTORE PUSH1 0x20 PUSH1 0x4 DUP3 ADD MSTORE PUSH1 0xB PUSH1 0x24 DUP3 ADD MSTORE PUSH11 0x506F6F6C20657869737473 PUSH1 0xA8 SHL PUSH1 0x44 DUP3 ADD MSTORE PUSH1 0x64 ADD PUSH1 0x40 MLOAD DUP1 SWAP2 SUB SWAP1 REVERT JUMPDEST PUSH1 0x0 PUSH32 0x0 PUSH32 0x0 DUP5 CALLER PUSH1 0x40 MLOAD PUSH2 0x209 SWAP1 PUSH2 0x355 JUMP JUMPDEST PUSH1 0x1 PUSH1 0x1 PUSH1 0xA0 SHL SUB SWAP5 DUP6 AND DUP2 MSTORE SWAP3 DUP5 AND PUSH1 0x20 DUP5 ADD MSTORE PUSH1 0x40 DUP4 ADD SWAP2 SWAP1 SWAP2 MSTORE SWAP1 SWAP2 AND PUSH1 0x60 DUP3 ADD MSTORE PUSH1 0x80 ADD PUSH1 0x40 MLOAD DUP1 SWAP2 SUB SWAP1 PUSH1 0x0 CREATE DUP1 ISZERO DUP1 ISZERO PUSH2 0x24D JUMPI RETURNDATASIZE PUSH1 0x0 DUP1 RETURNDATACOPY RETURNDATASIZE PUSH1 0x0 REVERT JUMPDEST POP PUSH1 0x0 DUP5 DUP2 MSTORE PUSH1 0x20 DUP2 DUP2 MSTORE PUSH1 0x40 DUP1 DUP4 KECCAK256 DUP1 SLOAD PUSH1 0x1 PUSH1 0x1 PUSH1 0xA0 SHL SUB DUP7 AND PUSH1 0x1 PUSH1 0x1 PUSH1 0xA0 SHL SUB NOT SWAP2 DUP3 AND DUP2 OR SWAP1 SWAP3 SSTORE PUSH1 0x1 DUP1 SLOAD DUP1 DUP3 ADD DUP3 SSTORE SWAP6 MSTORE PUSH32 0xB10E2D527612073B26EECDFD717E6A320CF44B4AFAC2B0732D9FCBE2B7FA0CF6 SWAP1 SWAP5 ADD DUP1 SLOAD SWAP1 SWAP5 AND DUP2 OR SWAP1 SWAP4 SSTORE DUP1 MLOAD DUP8 DUP2 MSTORE SWAP2 DUP3 ADD SWAP3 SWAP1 SWAP3 MSTORE SWAP2 SWAP3 POP PUSH32 0x65FC0EB45954044FB55E1B01344D5D72FBFDF88E732D955F73BB7FB2BCC131E9 SWAP2 ADD PUSH1 0x40 MLOAD DUP1 SWAP2 SUB SWAP1 LOG1 SWAP3 SWAP2 POP POP JUMP JUMPDEST PUSH1 0x60 PUSH1 0x1 DUP1 SLOAD DUP1 PUSH1 0x20 MUL PUSH1 0x20 ADD PUSH1 0x40 MLOAD SWAP1 DUP2 ADD PUSH1 0x40 MSTORE DUP1 SWAP3 SWAP2 SWAP1 DUP2 DUP2 MSTORE PUSH1 0x20 ADD DUP3 DUP1 SLOAD DUP1 ISZERO PUSH2 0x34B JUMPI PUSH1 0x20 MUL DUP3 ADD SWAP2 SWAP1 PUSH1 0x0 MSTORE PUSH1 0x20 PUSH1 0x0 KECCAK256 SWAP1 JUMPDEST DUP2 SLOAD PUSH1 0x1 PUSH1 0x1 PUSH1 0xA0 SHL SUB AND DUP2 MSTORE PUSH1 0x1 SWAP1 SWAP2 ADD SWAP1 PUSH1 0x20 ADD DUP1 DUP4 GT PUSH2 0x32D JUMPI JUMPDEST POP POP POP POP POP SWAP1 POP SWAP1 JUMP JUMPDEST PUSH2 0x1229 DUP1 PUSH2 0x3C9 DUP4 CODECOPY ADD SWAP1 JUMP JUMPDEST PUSH1 0x0 PUSH1 0x20 DUP3 DUP5 SUB SLT ISZERO PUSH2 0x374 JUMPI PUSH1 0x0 DUP1 REVERT JUMPDEST POP CALLDATALOAD SWAP2 SWAP1 POP JUMP JUMPDEST PUSH1 0x20 DUP1 DUP3 MSTORE DUP3 MLOAD DUP3 DUP3 ADD DUP2 SWAP1 MSTORE PUSH1 0x0 SWAP2 SWAP1 DUP5 DUP3 ADD SWAP1 PUSH1 0x40 DUP6 ADD SWAP1 DUP5 JUMPDEST DUP2 DUP2 LT ISZERO PUSH2 0x3BC JUMPI DUP4 MLOAD PUSH1 0x1 PUSH1 0x1 PUSH1 0xA0 SHL SUB AND DUP4 MSTORE SWAP3 DUP5 ADD SWAP3 SWAP2 DUP5 ADD SWAP2 PUSH1 0x1 ADD PUSH2 0x397 JUMP JUMPDEST POP SWAP1 SWAP7 SWAP6 POP POP POP POP POP POP JUMP INVALID PUSH1 0xE0 PUSH1 0x40 MSTORE CALLVALUE DUP1 ISZERO PUSH3 0x11 JUMPI PUSH1 0x0 DUP1 REVERT JUMPDEST POP PUSH1 0x40 MLOAD PUSH3 0x1229 CODESIZE SUB DUP1 PUSH3 0x1229 DUP4 CODECOPY DUP2 ADD PUSH1 0x40 DUP2 SWAP1 MSTORE PUSH3 0x34 SWAP2 PUSH3 0x1FE JUMP JUMPDEST PUSH1 0x0 DUP3 GT PUSH3 0x89 JUMPI PUSH1 0x40 MLOAD PUSH3 0x461BCD PUSH1 0xE5 SHL DUP2 MSTORE PUSH1 0x20 PUSH1 0x4 DUP3 ADD MSTORE PUSH1 0x18 PUSH1 0x24 DUP3 ADD MSTORE PUSH32 0x44656E6F6D696E6174696F6E206D757374206265203E20300000000000000000 PUSH1 0x44 DUP3 ADD MSTORE PUSH1 0x64 ADD PUSH1 0x40 MLOAD DUP1 SWAP2 SUB SWAP1 REVERT JUMPDEST PUSH1 0x1 PUSH1 0x1 PUSH1 0xA0 SHL SUB DUP5 DUP2 AND PUSH1 0x80 MSTORE DUP4 DUP2 AND PUSH1 0xA0 MSTORE PUSH1 0xC0 DUP4 SWAP1 MSTORE PUSH1 0x0 DUP1 SLOAD PUSH1 0x1 PUSH1 0x1 PUSH1 0xA0 SHL SUB NOT AND SWAP2 DUP4 AND SWAP2 SWAP1 SWAP2 OR DUP2 SSTORE DUP1 PUSH1 0x7D DUP2 ADD SSTORE DUP1 PUSH1 0x69 PUSH1 0x0 ADD SSTORE PUSH1 0x1 JUMPDEST PUSH1 0x14 PUSH4 0xFFFFFFFF DUP3 AND LT ISZERO PUSH3 0x13A JUMPI PUSH3 0xE5 DUP3 DUP1 PUSH3 0x156 JUMP JUMPDEST SWAP2 POP DUP2 PUSH1 0x7D DUP3 PUSH4 0xFFFFFFFF AND PUSH1 0x15 DUP2 LT PUSH3 0x104 JUMPI PUSH3 0x104 PUSH3 0x25A JUMP JUMPDEST ADD SSTORE DUP2 PUSH1 0x69 PUSH4 0xFFFFFFFF DUP4 AND PUSH1 0x14 DUP2 LT PUSH3 0x123 JUMPI PUSH3 0x123 PUSH3 0x25A JUMP JUMPDEST ADD SSTORE DUP1 PUSH3 0x131 DUP2 PUSH3 0x270 JUMP JUMPDEST SWAP2 POP POP PUSH3 0xC9 JUMP JUMPDEST POP PUSH3 0x147 DUP2 DUP1 PUSH3 0x156 JUMP JUMPDEST PUSH1 0x3 SSTORE POP PUSH3 0x2EF SWAP4 POP POP POP POP JUMP JUMPDEST PUSH1 0xA0 MLOAD PUSH1 0x40 DUP1 MLOAD DUP1 DUP3 ADD DUP3 MSTORE DUP5 DUP2 MSTORE PUSH1 0x20 DUP2 ADD DUP5 SWAP1 MSTORE SWAP1 MLOAD PUSH4 0x14CF2B3 PUSH1 0xE5 SHL DUP2 MSTORE PUSH1 0x0 SWAP3 PUSH1 0x1 PUSH1 0x1 PUSH1 0xA0 SHL SUB AND SWAP2 PUSH4 0x299E5660 SWAP2 PUSH3 0x19A SWAP2 SWAP1 PUSH1 0x4 ADD PUSH3 0x2A2 JUMP JUMPDEST PUSH1 0x20 PUSH1 0x40 MLOAD DUP1 DUP4 SUB DUP2 DUP7 GAS STATICCALL ISZERO DUP1 ISZERO PUSH3 0x1B8 JUMPI RETURNDATASIZE PUSH1 0x0 DUP1 RETURNDATACOPY RETURNDATASIZE PUSH1 0x0 REVERT JUMPDEST POP POP POP POP PUSH1 0x40 MLOAD RETURNDATASIZE PUSH1 0x1F NOT PUSH1 0x1F DUP3 ADD AND DUP3 ADD DUP1 PUSH1 0x40 MSTORE POP DUP2 ADD SWAP1 PUSH3 0x1DE SWAP2 SWAP1 PUSH3 0x2D5 JUMP JUMPDEST SWAP4 SWAP3 POP POP POP JUMP JUMPDEST PUSH1 0x1 PUSH1 0x1 PUSH1 0xA0 SHL SUB DUP2 AND DUP2 EQ PUSH3 0x1FB JUMPI PUSH1 0x0 DUP1 REVERT JUMPDEST POP JUMP JUMPDEST PUSH1 0x0 DUP1 PUSH1 0x0 DUP1 PUSH1 0x80 DUP6 DUP8 SUB SLT ISZERO PUSH3 0x215 JUMPI PUSH1 0x0 DUP1 REVERT JUMPDEST DUP5 MLOAD PUSH3 0x222 DUP2 PUSH3 0x1E5 JUMP JUMPDEST PUSH1 0x20 DUP7 ADD MLOAD SWAP1 SWAP5 POP PUSH3 0x235 DUP2 PUSH3 0x1E5 JUMP JUMPDEST PUSH1 0x40 DUP7 ADD MLOAD PUSH1 0x60 DUP8 ADD MLOAD SWAP2 SWAP5 POP SWAP3 POP PUSH3 0x24F DUP2 PUSH3 0x1E5 JUMP JUMPDEST SWAP4 SWAP7 SWAP3 SWAP6 POP SWAP1 SWAP4 POP POP JUMP JUMPDEST PUSH4 0x4E487B71 PUSH1 0xE0 SHL PUSH1 0x0 MSTORE PUSH1 0x32 PUSH1 0x4 MSTORE PUSH1 0x24 PUSH1 0x0 REVERT JUMPDEST PUSH1 0x0 PUSH4 0xFFFFFFFF DUP1 DUP4 AND DUP2 DUP2 SUB PUSH3 0x298 JUMPI PUSH4 0x4E487B71 PUSH1 0xE0 SHL PUSH1 0x0 MSTORE PUSH1 0x11 PUSH1 0x4 MSTORE PUSH1 0x24 PUSH1 0x0 REVERT JUMPDEST PUSH1 0x1 ADD SWAP4 SWAP3 POP POP POP JUMP JUMPDEST PUSH1 0x40 DUP2 ADD DUP2 DUP4 PUSH1 0x0 JUMPDEST PUSH1 0x2 DUP2 LT ISZERO PUSH3 0x2CC JUMPI DUP2 MLOAD DUP4 MSTORE PUSH1 0x20 SWAP3 DUP4 ADD SWAP3 SWAP1 SWAP2 ADD SWAP1 PUSH1 0x1 ADD PUSH3 0x2AB JUMP JUMPDEST POP POP POP SWAP3 SWAP2 POP POP JUMP JUMPDEST PUSH1 0x0 PUSH1 0x20 DUP3 DUP5 SUB SLT ISZERO PUSH3 0x2E8 JUMPI PUSH1 0x0 DUP1 REVERT JUMPDEST POP MLOAD SWAP2 SWAP1 POP JUMP JUMPDEST PUSH1 0x80 MLOAD PUSH1 0xA0 MLOAD PUSH1 0xC0 MLOAD PUSH2 0xEE7 PUSH3 0x342 PUSH1 0x0 CODECOPY PUSH1 0x0 DUP2 DUP2 PUSH2 0x238 ADD MSTORE DUP2 DUP2 PUSH2 0x391 ADD MSTORE DUP2 DUP2 PUSH2 0x597 ADD MSTORE PUSH2 0x6F1 ADD MSTORE PUSH1 0x0 DUP2 DUP2 PUSH2 0x322 ADD MSTORE PUSH2 0xA67 ADD MSTORE PUSH1 0x0 DUP2 DUP2 PUSH2 0x15A ADD MSTORE PUSH2 0x4BF ADD MSTORE PUSH2 0xEE7 PUSH1 0x0 RETURN INVALID PUSH1 0x80 PUSH1 0x40 MSTORE PUSH1 0x4 CALLDATASIZE LT PUSH2 0xFE JUMPI PUSH1 0x0 CALLDATALOAD PUSH1 0xE0 SHR DUP1 PUSH4 0xB214FAA5 GT PUSH2 0x95 JUMPI DUP1 PUSH4 0xE8295588 GT PUSH2 0x64 JUMPI DUP1 PUSH4 0xE8295588 EQ PUSH2 0x2F0 JUMPI DUP1 PUSH4 0xED33639F EQ PUSH2 0x310 JUMPI DUP1 PUSH4 0xF178E47C EQ PUSH2 0x344 JUMPI DUP1 PUSH4 0xFC7E9C6F EQ PUSH2 0x364 JUMPI DUP1 PUSH4 0xFCC0BE6B EQ PUSH2 0x37A JUMPI PUSH1 0x0 DUP1 REVERT JUMPDEST DUP1 PUSH4 0xB214FAA5 EQ PUSH2 0x27E JUMPI DUP1 PUSH4 0xBA70F757 EQ PUSH2 0x291 JUMPI DUP1 PUSH4 0xC2B40AE4 EQ PUSH2 0x2A6 JUMPI DUP1 PUSH4 0xCD87A3B4 EQ PUSH2 0x2C6 JUMPI PUSH1 0x0 DUP1 REVERT JUMPDEST DUP1 PUSH4 0x6D9833E3 GT PUSH2 0xD1 JUMPI DUP1 PUSH4 0x6D9833E3 EQ PUSH2 0x1D6 JUMPI DUP1 PUSH4 0x839DF945 EQ PUSH2 0x1F6 JUMPI DUP1 PUSH4 0x8BCA6D16 EQ PUSH2 0x226 JUMPI DUP1 PUSH4 0x90EEB02B EQ PUSH2 0x268 JUMPI PUSH1 0x0 DUP1 REVERT JUMPDEST DUP1 PUSH4 0x17CC915C EQ PUSH2 0x103 JUMPI DUP1 PUSH4 0x2B7AC3F3 EQ PUSH2 0x148 JUMPI DUP1 PUSH4 0x570CA735 EQ PUSH2 0x194 JUMPI DUP1 PUSH4 0x6650AEBB EQ PUSH2 0x1B4 JUMPI JUMPDEST PUSH1 0x0 DUP1 REVERT JUMPDEST CALLVALUE DUP1 ISZERO PUSH2 0x10F JUMPI PUSH1 0x0 DUP1 REVERT JUMPDEST POP PUSH2 0x133 PUSH2 0x11E CALLDATASIZE PUSH1 0x4 PUSH2 0xAE4 JUMP JUMPDEST PUSH1 0x68 PUSH1 0x20 MSTORE PUSH1 0x0 SWAP1 DUP2 MSTORE PUSH1 0x40 SWAP1 KECCAK256 SLOAD PUSH1 0xFF AND DUP2 JUMP JUMPDEST PUSH1 0x40 MLOAD SWAP1 ISZERO ISZERO DUP2 MSTORE PUSH1 0x20 ADD JUMPDEST PUSH1 0x40 MLOAD DUP1 SWAP2 SUB SWAP1 RETURN JUMPDEST CALLVALUE DUP1 ISZERO PUSH2 0x154 JUMPI PUSH1 0x0 DUP1 REVERT JUMPDEST POP PUSH2 0x17C PUSH32 0x0 DUP2 JUMP JUMPDEST PUSH1 0x40 MLOAD PUSH1 0x1 PUSH1 0x1 PUSH1 0xA0 SHL SUB SWAP1 SWAP2 AND DUP2 MSTORE PUSH1 0x20 ADD PUSH2 0x13F JUMP JUMPDEST CALLVALUE DUP1 ISZERO PUSH2 0x1A0 JUMPI PUSH1 0x0 DUP1 REVERT JUMPDEST POP PUSH1 0x0 SLOAD PUSH2 0x17C SWAP1 PUSH1 0x1 PUSH1 0x1 PUSH1 0xA0 SHL SUB AND DUP2 JUMP JUMPDEST CALLVALUE DUP1 ISZERO PUSH2 0x1C0 JUMPI PUSH1 0x0 DUP1 REVERT JUMPDEST POP PUSH2 0x1D4 PUSH2 0x1CF CALLDATASIZE PUSH1 0x4 PUSH2 0xB2A JUMP JUMPDEST PUSH2 0x38F JUMP JUMPDEST STOP JUMPDEST CALLVALUE DUP1 ISZERO PUSH2 0x1E2 JUMPI PUSH1 0x0 DUP1 REVERT JUMPDEST POP PUSH2 0x133 PUSH2 0x1F1 CALLDATASIZE PUSH1 0x4 PUSH2 0xAE4 JUMP JUMPDEST PUSH2 0x68D JUMP JUMPDEST CALLVALUE DUP1 ISZERO PUSH2 0x202 JUMPI PUSH1 0x0 DUP1 REVERT JUMPDEST POP PUSH2 0x133 PUSH2 0x211 CALLDATASIZE PUSH1 0x4 PUSH2 0xAE4 JUMP JUMPDEST PUSH1 0x67 PUSH1 0x20 MSTORE PUSH1 0x0 SWAP1 DUP2 MSTORE PUSH1 0x40 SWAP1 KECCAK256 SLOAD PUSH1 0xFF AND DUP2 JUMP JUMPDEST CALLVALUE DUP1 ISZERO PUSH2 0x232 JUMPI PUSH1 0x0 DUP1 REVERT JUMPDEST POP PUSH2 0x25A PUSH32 0x0 DUP2 JUMP JUMPDEST PUSH1 0x40 MLOAD SWAP1 DUP2 MSTORE PUSH1 0x20 ADD PUSH2 0x13F JUMP JUMPDEST CALLVALUE DUP1 ISZERO PUSH2 0x274 JUMPI PUSH1 0x0 DUP1 REVERT JUMPDEST POP PUSH2 0x25A PUSH1 0x1 SLOAD DUP2 JUMP JUMPDEST PUSH2 0x1D4 PUSH2 0x28C CALLDATASIZE PUSH1 0x4 PUSH2 0xAE4 JUMP JUMPDEST PUSH2 0x6EF JUMP JUMPDEST CALLVALUE DUP1 ISZERO PUSH2 0x29D JUMPI PUSH1 0x0 DUP1 REVERT JUMPDEST POP PUSH2 0x25A PUSH2 0x87A JUMP JUMPDEST CALLVALUE DUP1 ISZERO PUSH2 0x2B2 JUMPI PUSH1 0x0 DUP1 REVERT JUMPDEST POP PUSH2 0x25A PUSH2 0x2C1 CALLDATASIZE PUSH1 0x4 PUSH2 0xAE4 JUMP JUMPDEST PUSH2 0x898 JUMP JUMPDEST CALLVALUE DUP1 ISZERO PUSH2 0x2D2 JUMPI PUSH1 0x0 DUP1 REVERT JUMPDEST POP PUSH2 0x2DB PUSH1 0x64 DUP2 JUMP JUMPDEST PUSH1 0x40 MLOAD PUSH4 0xFFFFFFFF SWAP1 SWAP2 AND DUP2 MSTORE PUSH1 0x20 ADD PUSH2 0x13F JUMP JUMPDEST CALLVALUE DUP1 ISZERO PUSH2 0x2FC JUMPI PUSH1 0x0 DUP1 REVERT JUMPDEST POP PUSH2 0x25A PUSH2 0x30B CALLDATASIZE PUSH1 0x4 PUSH2 0xAE4 JUMP JUMPDEST PUSH2 0x8AF JUMP JUMPDEST CALLVALUE DUP1 ISZERO PUSH2 0x31C JUMPI PUSH1 0x0 DUP1 REVERT JUMPDEST POP PUSH2 0x17C PUSH32 0x0 DUP2 JUMP JUMPDEST CALLVALUE DUP1 ISZERO PUSH2 0x350 JUMPI PUSH1 0x0 DUP1 REVERT JUMPDEST POP PUSH2 0x25A PUSH2 0x35F CALLDATASIZE PUSH1 0x4 PUSH2 0xAE4 JUMP JUMPDEST PUSH2 0x8BF JUMP JUMPDEST CALLVALUE DUP1 ISZERO PUSH2 0x370 JUMPI PUSH1 0x0 DUP1 REVERT JUMPDEST POP PUSH2 0x25A PUSH1 0x2 SLOAD DUP2 JUMP JUMPDEST CALLVALUE DUP1 ISZERO PUSH2 0x386 JUMPI PUSH1 0x0 DUP1 REVERT JUMPDEST POP PUSH2 0x2DB PUSH1 0x14 DUP2 JUMP JUMPDEST PUSH32 0x0 DUP2 LT PUSH2 0x403 JUMPI PUSH1 0x40 MLOAD PUSH3 0x461BCD PUSH1 0xE5 SHL DUP2 MSTORE PUSH1 0x20 PUSH1 0x4 DUP3 ADD MSTORE PUSH1 0x18 PUSH1 0x24 DUP3 ADD MSTORE PUSH32 0x46656520657863656564732064656E6F6D696E6174696F6E0000000000000000 PUSH1 0x44 DUP3 ADD MSTORE PUSH1 0x64 ADD JUMPDEST PUSH1 0x40 MLOAD DUP1 SWAP2 SUB SWAP1 REVERT JUMPDEST PUSH1 0x0 DUP5 DUP2 MSTORE PUSH1 0x68 PUSH1 0x20 MSTORE PUSH1 0x40 SWAP1 KECCAK256 SLOAD PUSH1 0xFF AND ISZERO PUSH2 0x452 JUMPI PUSH1 0x40 MLOAD PUSH3 0x461BCD PUSH1 0xE5 SHL DUP2 MSTORE PUSH1 0x20 PUSH1 0x4 DUP3 ADD MSTORE PUSH1 0xD PUSH1 0x24 DUP3 ADD MSTORE PUSH13 0x105B1C9958591E481CDC195B9D PUSH1 0x9A SHL PUSH1 0x44 DUP3 ADD MSTORE PUSH1 0x64 ADD PUSH2 0x3FA JUMP JUMPDEST PUSH2 0x45B DUP6 PUSH2 0x68D JUMP JUMPDEST PUSH2 0x496 JUMPI PUSH1 0x40 MLOAD PUSH3 0x461BCD PUSH1 0xE5 SHL DUP2 MSTORE PUSH1 0x20 PUSH1 0x4 DUP3 ADD MSTORE PUSH1 0xC PUSH1 0x24 DUP3 ADD MSTORE PUSH12 0x155B9ADB9BDDDB881C9BDBDD PUSH1 0xA2 SHL PUSH1 0x44 DUP3 ADD MSTORE PUSH1 0x64 ADD PUSH2 0x3FA JUMP JUMPDEST PUSH1 0x40 DUP1 MLOAD DUP1 DUP3 ADD DUP3 MSTORE DUP7 DUP2 MSTORE PUSH1 0x20 DUP2 ADD DUP7 SWAP1 MSTORE SWAP1 MLOAD PUSH4 0x7AE4EB4F PUSH1 0xE1 SHL DUP2 MSTORE PUSH1 0x1 PUSH1 0x1 PUSH1 0xA0 SHL SUB PUSH32 0x0 AND SWAP2 PUSH4 0xF5C9D69E SWAP2 PUSH2 0x4F8 SWAP2 DUP13 SWAP2 DUP13 SWAP2 DUP13 SWAP2 PUSH1 0x4 ADD PUSH2 0xBBA JUMP JUMPDEST PUSH1 0x20 PUSH1 0x40 MLOAD DUP1 DUP4 SUB DUP2 DUP7 GAS STATICCALL ISZERO DUP1 ISZERO PUSH2 0x515 JUMPI RETURNDATASIZE PUSH1 0x0 DUP1 RETURNDATACOPY RETURNDATASIZE PUSH1 0x0 REVERT JUMPDEST POP POP POP POP PUSH1 0x40 MLOAD RETURNDATASIZE PUSH1 0x1F NOT PUSH1 0x1F DUP3 ADD AND DUP3 ADD DUP1 PUSH1 0x40 MSTORE POP DUP2 ADD SWAP1 PUSH2 0x539 SWAP2 SWAP1 PUSH2 0xC28 JUMP JUMPDEST PUSH2 0x578 JUMPI PUSH1 0x40 MLOAD PUSH3 0x461BCD PUSH1 0xE5 SHL DUP2 MSTORE PUSH1 0x20 PUSH1 0x4 DUP3 ADD MSTORE PUSH1 0x10 PUSH1 0x24 DUP3 ADD MSTORE PUSH16 0x24B73B30B634B2102D2590383937B7B3 PUSH1 0x81 SHL PUSH1 0x44 DUP3 ADD MSTORE PUSH1 0x64 ADD PUSH2 0x3FA JUMP JUMPDEST PUSH1 0x0 DUP5 DUP2 MSTORE PUSH1 0x68 PUSH1 0x20 MSTORE PUSH1 0x40 DUP2 KECCAK256 DUP1 SLOAD PUSH1 0xFF NOT AND PUSH1 0x1 OR SWAP1 SSTORE PUSH2 0x5BB DUP3 PUSH32 0x0 PUSH2 0xC67 JUMP JUMPDEST PUSH1 0x40 MLOAD SWAP1 SWAP2 POP PUSH1 0x1 PUSH1 0x1 PUSH1 0xA0 SHL SUB DUP6 AND SWAP1 DUP3 ISZERO PUSH2 0x8FC MUL SWAP1 DUP4 SWAP1 PUSH1 0x0 DUP2 DUP2 DUP2 DUP6 DUP9 DUP9 CALL SWAP4 POP POP POP POP ISZERO DUP1 ISZERO PUSH2 0x5F4 JUMPI RETURNDATASIZE PUSH1 0x0 DUP1 RETURNDATACOPY RETURNDATASIZE PUSH1 0x0 REVERT JUMPDEST POP DUP2 ISZERO PUSH2 0x633 JUMPI PUSH1 0x40 MLOAD PUSH1 0x1 PUSH1 0x1 PUSH1 0xA0 SHL SUB DUP5 AND SWAP1 DUP4 ISZERO PUSH2 0x8FC MUL SWAP1 DUP5 SWAP1 PUSH1 0x0 DUP2 DUP2 DUP2 DUP6 DUP9 DUP9 CALL SWAP4 POP POP POP POP ISZERO DUP1 ISZERO PUSH2 0x631 JUMPI RETURNDATASIZE PUSH1 0x0 DUP1 RETURNDATACOPY RETURNDATASIZE PUSH1 0x0 REVERT JUMPDEST POP JUMPDEST PUSH1 0x40 DUP1 MLOAD PUSH1 0x1 PUSH1 0x1 PUSH1 0xA0 SHL SUB DUP7 DUP2 AND DUP3 MSTORE PUSH1 0x20 DUP3 ADD DUP9 SWAP1 MSTORE SWAP2 DUP2 ADD DUP5 SWAP1 MSTORE SWAP1 DUP5 AND SWAP1 PUSH32 0xE9E508BAD6D4C3227E881CA19068F099DA81B5164DD6D62B2EAF1E8BC6C34931 SWAP1 PUSH1 0x60 ADD PUSH1 0x40 MLOAD DUP1 SWAP2 SUB SWAP1 LOG2 POP POP POP POP POP POP POP POP POP JUMP JUMPDEST PUSH1 0x0 DUP2 PUSH2 0x69C JUMPI POP PUSH1 0x0 SWAP2 SWAP1 POP JUMP JUMPDEST PUSH1 0x1 SLOAD JUMPDEST PUSH1 0x3 DUP2 PUSH1 0x64 DUP2 LT PUSH2 0x6B3 JUMPI PUSH2 0x6B3 PUSH2 0xC7A JUMP JUMPDEST ADD SLOAD DUP4 SUB PUSH2 0x6C4 JUMPI POP PUSH1 0x1 SWAP3 SWAP2 POP POP JUMP JUMPDEST DUP1 PUSH1 0x0 SUB PUSH2 0x6D0 JUMPI POP PUSH1 0x64 JUMPDEST DUP1 PUSH2 0x6DA DUP2 PUSH2 0xC90 JUMP JUMPDEST SWAP2 POP POP PUSH1 0x1 SLOAD DUP2 SUB PUSH2 0x6A0 JUMPI POP PUSH1 0x0 SWAP3 SWAP2 POP POP JUMP JUMPDEST PUSH32 0x0 CALLVALUE EQ PUSH2 0x751 JUMPI PUSH1 0x40 MLOAD PUSH3 0x461BCD PUSH1 0xE5 SHL DUP2 MSTORE PUSH1 0x20 PUSH1 0x4 DUP3 ADD MSTORE PUSH1 0x10 PUSH1 0x24 DUP3 ADD MSTORE PUSH16 0x15DC9BDB99C8161390C8185B5BDD5B9D PUSH1 0x82 SHL PUSH1 0x44 DUP3 ADD MSTORE PUSH1 0x64 ADD PUSH2 0x3FA JUMP JUMPDEST PUSH1 0x0 DUP2 DUP2 MSTORE PUSH1 0x67 PUSH1 0x20 MSTORE PUSH1 0x40 SWAP1 KECCAK256 SLOAD PUSH1 0xFF AND ISZERO PUSH2 0x7B0 JUMPI PUSH1 0x40 MLOAD PUSH3 0x461BCD PUSH1 0xE5 SHL DUP2 MSTORE PUSH1 0x20 PUSH1 0x4 DUP3 ADD MSTORE PUSH1 0x19 PUSH1 0x24 DUP3 ADD MSTORE PUSH32 0x436F6D6D69746D656E7420616C72656164792065786973747300000000000000 PUSH1 0x44 DUP3 ADD MSTORE PUSH1 0x64 ADD PUSH2 0x3FA JUMP JUMPDEST PUSH2 0x7BC PUSH1 0x14 PUSH1 0x2 PUSH2 0xD8B JUMP JUMPDEST PUSH1 0x2 SLOAD LT PUSH2 0x802 JUMPI PUSH1 0x40 MLOAD PUSH3 0x461BCD PUSH1 0xE5 SHL DUP2 MSTORE PUSH1 0x20 PUSH1 0x4 DUP3 ADD MSTORE PUSH1 0x13 PUSH1 0x24 DUP3 ADD MSTORE PUSH19 0x13595C9ADB19481D1C9959481A5CC8199D5B1B PUSH1 0x6A SHL PUSH1 0x44 DUP3 ADD MSTORE PUSH1 0x64 ADD PUSH2 0x3FA JUMP JUMPDEST PUSH1 0x0 PUSH2 0x80D DUP3 PUSH2 0x8CF JUMP JUMPDEST PUSH1 0x0 DUP4 DUP2 MSTORE PUSH1 0x67 PUSH1 0x20 MSTORE PUSH1 0x40 SWAP1 DUP2 SWAP1 KECCAK256 DUP1 SLOAD PUSH1 0xFF NOT AND PUSH1 0x1 OR SWAP1 SSTORE MLOAD SWAP1 SWAP2 POP DUP3 SWAP1 PUSH32 0xA945E51EEC50AB98C161376F0DB4CF2AEBA3EC92755FE2FCD388BDBBB80FF196 SWAP1 PUSH2 0x86E SWAP1 DUP5 SWAP1 TIMESTAMP SWAP1 PUSH4 0xFFFFFFFF SWAP3 SWAP1 SWAP3 AND DUP3 MSTORE PUSH1 0x20 DUP3 ADD MSTORE PUSH1 0x40 ADD SWAP1 JUMP JUMPDEST PUSH1 0x40 MLOAD DUP1 SWAP2 SUB SWAP1 LOG2 POP POP JUMP JUMPDEST PUSH1 0x0 PUSH1 0x3 PUSH1 0x1 SLOAD PUSH1 0x64 DUP2 LT PUSH2 0x891 JUMPI PUSH2 0x891 PUSH2 0xC7A JUMP JUMPDEST ADD SLOAD SWAP1 POP SWAP1 JUMP JUMPDEST PUSH1 0x3 DUP2 PUSH1 0x64 DUP2 LT PUSH2 0x8A8 JUMPI PUSH1 0x0 DUP1 REVERT JUMPDEST ADD SLOAD SWAP1 POP DUP2 JUMP JUMPDEST PUSH1 0x7D DUP2 PUSH1 0x15 DUP2 LT PUSH2 0x8A8 JUMPI PUSH1 0x0 DUP1 REVERT JUMPDEST PUSH1 0x69 DUP2 PUSH1 0x14 DUP2 LT PUSH2 0x8A8 JUMPI PUSH1 0x0 DUP1 REVERT JUMPDEST PUSH1 0x2 DUP1 SLOAD PUSH1 0x0 SWAP2 PUSH2 0x8E2 SWAP1 PUSH1 0x14 SWAP1 PUSH2 0xD8B JUMP JUMPDEST DUP2 PUSH4 0xFFFFFFFF AND LT PUSH2 0x925 JUMPI PUSH1 0x40 MLOAD PUSH3 0x461BCD PUSH1 0xE5 SHL DUP2 MSTORE PUSH1 0x20 PUSH1 0x4 DUP3 ADD MSTORE PUSH1 0xC PUSH1 0x24 DUP3 ADD MSTORE PUSH12 0x151C9959481A5CC8199D5B1B PUSH1 0xA2 SHL PUSH1 0x44 DUP3 ADD MSTORE PUSH1 0x64 ADD PUSH2 0x3FA JUMP JUMPDEST DUP1 DUP4 PUSH1 0x0 DUP1 DUP1 JUMPDEST PUSH1 0x14 PUSH4 0xFFFFFFFF DUP3 AND LT ISZERO PUSH2 0x9E0 JUMPI PUSH2 0x946 PUSH1 0x2 DUP7 PUSH2 0xDB3 JUMP JUMPDEST PUSH4 0xFFFFFFFF AND PUSH1 0x0 SUB PUSH2 0x994 JUMPI DUP4 SWAP3 POP PUSH1 0x7D DUP2 PUSH4 0xFFFFFFFF AND PUSH1 0x15 DUP2 LT PUSH2 0x96F JUMPI PUSH2 0x96F PUSH2 0xC7A JUMP JUMPDEST ADD SLOAD SWAP2 POP DUP4 PUSH1 0x69 DUP3 PUSH4 0xFFFFFFFF AND PUSH1 0x14 DUP2 LT PUSH2 0x98D JUMPI PUSH2 0x98D PUSH2 0xC7A JUMP JUMPDEST ADD SSTORE PUSH2 0x9B5 JUMP JUMPDEST PUSH1 0x69 DUP2 PUSH4 0xFFFFFFFF AND PUSH1 0x14 DUP2 LT PUSH2 0x9AD JUMPI PUSH2 0x9AD PUSH2 0xC7A JUMP JUMPDEST ADD SLOAD SWAP3 POP DUP4 SWAP2 POP JUMPDEST PUSH2 0x9BF DUP4 DUP4 PUSH2 0xA3B JUMP JUMPDEST SWAP4 POP PUSH2 0x9CC PUSH1 0x2 DUP7 PUSH2 0xDD6 JUMP JUMPDEST SWAP5 POP DUP1 PUSH2 0x9D8 DUP2 PUSH2 0xDF9 JUMP JUMPDEST SWAP2 POP POP PUSH2 0x92C JUMP JUMPDEST POP PUSH1 0x1 DUP1 SLOAD PUSH1 0x0 SWAP2 PUSH1 0x64 SWAP2 PUSH2 0x9F4 SWAP2 PUSH2 0xE1C JUMP JUMPDEST PUSH2 0x9FE SWAP2 SWAP1 PUSH2 0xE2F JUMP JUMPDEST PUSH1 0x1 DUP2 SWAP1 SSTORE SWAP1 POP DUP4 PUSH1 0x3 DUP3 PUSH1 0x64 DUP2 LT PUSH2 0xA19 JUMPI PUSH2 0xA19 PUSH2 0xC7A JUMP JUMPDEST ADD SSTORE PUSH2 0xA26 DUP7 PUSH1 0x1 PUSH2 0xE43 JUMP JUMPDEST PUSH4 0xFFFFFFFF AND PUSH1 0x2 SSTORE POP SWAP4 SWAP7 SWAP6 POP POP POP POP POP POP JUMP JUMPDEST PUSH1 0x40 DUP1 MLOAD DUP1 DUP3 ADD DUP3 MSTORE DUP4 DUP2 MSTORE PUSH1 0x20 DUP2 ADD DUP4 SWAP1 MSTORE SWAP1 MLOAD PUSH4 0x14CF2B3 PUSH1 0xE5 SHL DUP2 MSTORE PUSH1 0x0 SWAP2 PUSH1 0x1 PUSH1 0x1 PUSH1 0xA0 SHL SUB PUSH32 0x0 AND SWAP2 PUSH4 0x299E5660 SWAP2 PUSH2 0xA9A SWAP2 PUSH1 0x4 ADD PUSH2 0xE67 JUMP JUMPDEST PUSH1 0x20 PUSH1 0x40 MLOAD DUP1 DUP4 SUB DUP2 DUP7 GAS STATICCALL ISZERO DUP1 ISZERO PUSH2 0xAB7 JUMPI RETURNDATASIZE PUSH1 0x0 DUP1 RETURNDATACOPY RETURNDATASIZE PUSH1 0x0 REVERT JUMPDEST POP POP POP POP PUSH1 0x40 MLOAD RETURNDATASIZE PUSH1 0x1F NOT PUSH1 0x1F DUP3 ADD AND DUP3 ADD DUP1 PUSH1 0x40 MSTORE POP DUP2 ADD SWAP1 PUSH2 0xADB SWAP2 SWAP1 PUSH2 0xE98 JUMP JUMPDEST SWAP1 POP JUMPDEST SWAP3 SWAP2 POP POP JUMP JUMPDEST PUSH1 0x0 PUSH1 0x20 DUP3 DUP5 SUB SLT ISZERO PUSH2 0xAF6 JUMPI PUSH1 0x0 DUP1 REVERT JUMPDEST POP CALLDATALOAD SWAP2 SWAP1 POP JUMP JUMPDEST DUP1 PUSH1 0x40 DUP2 ADD DUP4 LT ISZERO PUSH2 0xADE JUMPI PUSH1 0x0 DUP1 REVERT JUMPDEST DUP1 CALLDATALOAD PUSH1 0x1 PUSH1 0x1 PUSH1 0xA0 SHL SUB DUP2 AND DUP2 EQ PUSH2 0xB25 JUMPI PUSH1 0x0 DUP1 REVERT JUMPDEST SWAP2 SWAP1 POP JUMP JUMPDEST PUSH1 0x0 DUP1 PUSH1 0x0 DUP1 PUSH1 0x0 DUP1 PUSH1 0x0 DUP1 PUSH2 0x1A0 DUP10 DUP12 SUB SLT ISZERO PUSH2 0xB47 JUMPI PUSH1 0x0 DUP1 REVERT JUMPDEST PUSH2 0xB51 DUP11 DUP11 PUSH2 0xAFD JUMP JUMPDEST SWAP8 POP PUSH1 0xC0 DUP10 ADD DUP11 DUP2 GT ISZERO PUSH2 0xB64 JUMPI PUSH1 0x0 DUP1 REVERT JUMPDEST PUSH1 0x40 DUP11 ADD SWAP8 POP PUSH2 0xB74 DUP12 DUP3 PUSH2 0xAFD JUMP JUMPDEST SWAP7 POP POP PUSH2 0x100 DUP10 ADD CALLDATALOAD SWAP5 POP PUSH2 0x120 DUP10 ADD CALLDATALOAD SWAP4 POP PUSH2 0xB94 PUSH2 0x140 DUP11 ADD PUSH2 0xB0E JUMP JUMPDEST SWAP3 POP PUSH2 0xBA3 PUSH2 0x160 DUP11 ADD PUSH2 0xB0E JUMP JUMPDEST SWAP2 POP PUSH2 0x180 DUP10 ADD CALLDATALOAD SWAP1 POP SWAP3 SWAP6 SWAP9 POP SWAP3 SWAP6 SWAP9 SWAP1 SWAP4 SWAP7 POP JUMP JUMPDEST PUSH2 0x140 DUP2 ADD PUSH1 0x40 DUP1 DUP8 DUP5 CALLDATACOPY DUP1 DUP4 ADD DUP7 PUSH1 0x0 JUMPDEST PUSH1 0x2 DUP2 LT ISZERO PUSH2 0xBE9 JUMPI DUP4 DUP3 DUP5 CALLDATACOPY SWAP2 DUP4 ADD SWAP2 SWAP1 DUP4 ADD SWAP1 PUSH1 0x1 ADD PUSH2 0xBCC JUMP JUMPDEST POP POP POP DUP1 DUP6 PUSH1 0xC0 DUP6 ADD CALLDATACOPY POP PUSH2 0x100 DUP3 ADD DUP4 PUSH1 0x0 JUMPDEST PUSH1 0x2 DUP2 LT ISZERO PUSH2 0xC1C JUMPI DUP2 MLOAD DUP4 MSTORE PUSH1 0x20 SWAP3 DUP4 ADD SWAP3 SWAP1 SWAP2 ADD SWAP1 PUSH1 0x1 ADD PUSH2 0xBFD JUMP JUMPDEST POP POP POP SWAP6 SWAP5 POP POP POP POP POP JUMP JUMPDEST PUSH1 0x0 PUSH1 0x20 DUP3 DUP5 SUB SLT ISZERO PUSH2 0xC3A JUMPI PUSH1 0x0 DUP1 REVERT JUMPDEST DUP2 MLOAD DUP1 ISZERO ISZERO DUP2 EQ PUSH2 0xC4A JUMPI PUSH1 0x0 DUP1 REVERT JUMPDEST SWAP4 SWAP3 POP POP POP JUMP JUMPDEST PUSH4 0x4E487B71 PUSH1 0xE0 SHL PUSH1 0x0 MSTORE PUSH1 0x11 PUSH1 0x4 MSTORE PUSH1 0x24 PUSH1 0x0 REVERT JUMPDEST DUP2 DUP2 SUB DUP2 DUP2 GT ISZERO PUSH2 0xADE JUMPI PUSH2 0xADE PUSH2 0xC51 JUMP JUMPDEST PUSH4 0x4E487B71 PUSH1 0xE0 SHL PUSH1 0x0 MSTORE PUSH1 0x32 PUSH1 0x4 MSTORE PUSH1 0x24 PUSH1 0x0 REVERT JUMPDEST PUSH1 0x0 DUP2 PUSH2 0xC9F JUMPI PUSH2 0xC9F PUSH2 0xC51 JUMP JUMPDEST POP PUSH1 0x0 NOT ADD SWAP1 JUMP JUMPDEST PUSH1 0x1 DUP2 DUP2 JUMPDEST DUP1 DUP6 GT ISZERO PUSH2 0xCE2 JUMPI DUP2 PUSH1 0x0 NOT DIV DUP3 GT ISZERO PUSH2 0xCC8 JUMPI PUSH2 0xCC8 PUSH2 0xC51 JUMP JUMPDEST DUP1 DUP6 AND ISZERO PUSH2 0xCD5 JUMPI SWAP2 DUP2 MUL SWAP2 JUMPDEST SWAP4 DUP5 SHR SWAP4 SWAP1 DUP1 MUL SWAP1 PUSH2 0xCAC JUMP JUMPDEST POP SWAP3 POP SWAP3 SWAP1 POP JUMP JUMPDEST PUSH1 0x0 DUP3 PUSH2 0xCF9 JUMPI POP PUSH1 0x1 PUSH2 0xADE JUMP JUMPDEST DUP2 PUSH2 0xD06 JUMPI POP PUSH1 0x0 PUSH2 0xADE JUMP JUMPDEST DUP2 PUSH1 0x1 DUP2 EQ PUSH2 0xD1C JUMPI PUSH1 0x2 DUP2 EQ PUSH2 0xD26 JUMPI PUSH2 0xD42 JUMP JUMPDEST PUSH1 0x1 SWAP2 POP POP PUSH2 0xADE JUMP JUMPDEST PUSH1 0xFF DUP5 GT ISZERO PUSH2 0xD37 JUMPI PUSH2 0xD37 PUSH2 0xC51 JUMP JUMPDEST POP POP PUSH1 0x1 DUP3 SHL PUSH2 0xADE JUMP JUMPDEST POP PUSH1 0x20 DUP4 LT PUSH2 0x133 DUP4 LT AND PUSH1 0x4E DUP5 LT PUSH1 0xB DUP5 LT AND OR ISZERO PUSH2 0xD65 JUMPI POP DUP2 DUP2 EXP PUSH2 0xADE JUMP JUMPDEST PUSH2 0xD6F DUP4 DUP4 PUSH2 0xCA7 JUMP JUMPDEST DUP1 PUSH1 0x0 NOT DIV DUP3 GT ISZERO PUSH2 0xD83 JUMPI PUSH2 0xD83 PUSH2 0xC51 JUMP JUMPDEST MUL SWAP4 SWAP3 POP POP POP JUMP JUMPDEST PUSH1 0x0 PUSH2 0xADB PUSH4 0xFFFFFFFF DUP5 AND DUP4 PUSH2 0xCEA JUMP JUMPDEST PUSH4 0x4E487B71 PUSH1 0xE0 SHL PUSH1 0x0 MSTORE PUSH1 0x12 PUSH1 0x4 MSTORE PUSH1 0x24 PUSH1 0x0 REVERT JUMPDEST PUSH1 0x0 PUSH4 0xFFFFFFFF DUP1 DUP5 AND DUP1 PUSH2 0xDCA JUMPI PUSH2 0xDCA PUSH2 0xD9D JUMP JUMPDEST SWAP3 AND SWAP2 SWAP1 SWAP2 MOD SWAP3 SWAP2 POP POP JUMP JUMPDEST PUSH1 0x0 PUSH4 0xFFFFFFFF DUP1 DUP5 AND DUP1 PUSH2 0xDED JUMPI PUSH2 0xDED PUSH2 0xD9D JUMP JUMPDEST SWAP3 AND SWAP2 SWAP1 SWAP2 DIV SWAP3 SWAP2 POP POP JUMP JUMPDEST PUSH1 0x0 PUSH4 0xFFFFFFFF DUP1 DUP4 AND DUP2 DUP2 SUB PUSH2 0xE12 JUMPI PUSH2 0xE12 PUSH2 0xC51 JUMP JUMPDEST PUSH1 0x1 ADD SWAP4 SWAP3 POP POP POP JUMP JUMPDEST DUP1 DUP3 ADD DUP1 DUP3 GT ISZERO PUSH2 0xADE JUMPI PUSH2 0xADE PUSH2 0xC51 JUMP JUMPDEST PUSH1 0x0 DUP3 PUSH2 0xE3E JUMPI PUSH2 0xE3E PUSH2 0xD9D JUMP JUMPDEST POP MOD SWAP1 JUMP JUMPDEST PUSH4 0xFFFFFFFF DUP2 DUP2 AND DUP4 DUP3 AND ADD SWAP1 DUP1 DUP3 GT ISZERO PUSH2 0xE60 JUMPI PUSH2 0xE60 PUSH2 0xC51 JUMP JUMPDEST POP SWAP3 SWAP2 POP POP JUMP JUMPDEST PUSH1 0x40 DUP2 ADD DUP2 DUP4 PUSH1 0x0 JUMPDEST PUSH1 0x2 DUP2 LT ISZERO PUSH2 0xE8F JUMPI DUP2 MLOAD DUP4 MSTORE PUSH1 0x20 SWAP3 DUP4 ADD SWAP3 SWAP1 SWAP2 ADD SWAP1 PUSH1 0x1 ADD PUSH2 0xE70 JUMP JUMPDEST POP POP POP SWAP3 SWAP2 POP POP JUMP JUMPDEST PUSH1 0x0 PUSH1 0x20 DUP3 DUP5 SUB SLT ISZERO PUSH2 0xEAA JUMPI PUSH1 0x0 DUP1 REVERT JUMPDEST POP MLOAD SWAP2 SWAP1 POP JUMP INVALID LOG2 PUSH5 0x6970667358 0x22 SLT KECCAK256 DUP6 DELEGATECALL DUP9 0xBB 0x27 PUSH5 0xB46EA289EA CALLDATALOAD 0xB6 0x5C EXTCODESIZE 0xBD GASLIMIT CALL DUP12 LOG1 MLOAD ADDMOD 0x4A REVERT 0xDC SWAP12 0x23 ORIGIN PUSH6 0x6FE88764736F PUSH13 0x63430008140033A26469706673 PC 0x22 SLT KECCAK256 GASPRICE 0xF8 0xDF PC 0xD7 0xAC 0xA5 0x23 CHAINID SGT 0xEB SWAP4 PUSH2 0x1E18 SWAP4 0x27 SHR DUP4 0x5D LOG1 LOG3 0xEB ISZERO 0x1F PUSH22 0x52859C8258DF64736F6C634300081400330000000000 "},"methodIdentifiers":{"allPools(uint256)":"41d1de97","createPool(uint256)":"8259e6a0","getAllPools()":"d88ff1f4","hasher()":"ed33639f","pools(uint256)":"ac4afa38","verifier()":"2b7ac3f3"}}}}}