{
  "_format": "hh-sol-artifact-1",
  "contractName": "XnetPrivacyPool",
  "sourceName": "contracts/XnetPrivacyPool.sol",
  "abi": [
    {
      "inputs": [
        {
          "internalType": "contract IVerifier",
          "name": "_verifier",
          "type": "address"
        },
        {
          "internalType": "contract IHasher",
          "name": "_hasher",
          "type": "address"
        },
        {
          "internalType": "uint256",
          "name": "_denomination",
          "type": "uint256"
        },
        {
          "internalType": "address",
          "name": "_operator",
          "type": "address"
        }
      ],
      "stateMutability": "nonpayable",
      "type": "constructor"
    },
    {
      "anonymous": false,
      "inputs": [
        {
          "indexed": true,
          "internalType": "bytes32",
          "name": "commitment",
          "type": "bytes32"
        },
        {
          "indexed": false,
          "internalType": "uint32",
          "name": "leafIndex",
          "type": "uint32"
        },
        {
          "indexed": false,
          "internalType": "uint256",
          "name": "timestamp",
          "type": "uint256"
        }
      ],
      "name": "Deposit",
      "type": "event"
    },
    {
      "anonymous": false,
      "inputs": [
        {
          "indexed": false,
          "internalType": "address",
          "name": "to",
          "type": "address"
        },
        {
          "indexed": false,
          "internalType": "bytes32",
          "name": "nullifierHash",
          "type": "bytes32"
        },
        {
          "indexed": true,
          "internalType": "address",
          "name": "relayer",
          "type": "address"
        },
        {
          "indexed": false,
          "internalType": "uint256",
          "name": "fee",
          "type": "uint256"
        }
      ],
      "name": "Withdrawal",
      "type": "event"
    },
    {
      "inputs": [],
      "name": "MERKLE_TREE_HEIGHT",
      "outputs": [
        {
          "internalType": "uint32",
          "name": "",
          "type": "uint32"
        }
      ],
      "stateMutability": "view",
      "type": "function"
    },
    {
      "inputs": [],
      "name": "ROOT_HISTORY_SIZE",
      "outputs": [
        {
          "internalType": "uint32",
          "name": "",
          "type": "uint32"
        }
      ],
      "stateMutability": "view",
      "type": "function"
    },
    {
      "inputs": [
        {
          "internalType": "bytes32",
          "name": "",
          "type": "bytes32"
        }
      ],
      "name": "commitments",
      "outputs": [
        {
          "internalType": "bool",
          "name": "",
          "type": "bool"
        }
      ],
      "stateMutability": "view",
      "type": "function"
    },
    {
      "inputs": [],
      "name": "currentRootIndex",
      "outputs": [
        {
          "internalType": "uint256",
          "name": "",
          "type": "uint256"
        }
      ],
      "stateMutability": "view",
      "type": "function"
    },
    {
      "inputs": [],
      "name": "denomination",
      "outputs": [
        {
          "internalType": "uint256",
          "name": "",
          "type": "uint256"
        }
      ],
      "stateMutability": "view",
      "type": "function"
    },
    {
      "inputs": [
        {
          "internalType": "bytes32",
          "name": "commitment",
          "type": "bytes32"
        }
      ],
      "name": "deposit",
      "outputs": [],
      "stateMutability": "payable",
      "type": "function"
    },
    {
      "inputs": [
        {
          "internalType": "uint256",
          "name": "",
          "type": "uint256"
        }
      ],
      "name": "filledSubtrees",
      "outputs": [
        {
          "internalType": "bytes32",
          "name": "",
          "type": "bytes32"
        }
      ],
      "stateMutability": "view",
      "type": "function"
    },
    {
      "inputs": [],
      "name": "getLastRoot",
      "outputs": [
        {
          "internalType": "bytes32",
          "name": "",
          "type": "bytes32"
        }
      ],
      "stateMutability": "view",
      "type": "function"
    },
    {
      "inputs": [],
      "name": "hasher",
      "outputs": [
        {
          "internalType": "contract IHasher",
          "name": "",
          "type": "address"
        }
      ],
      "stateMutability": "view",
      "type": "function"
    },
    {
      "inputs": [
        {
          "internalType": "bytes32",
          "name": "root",
          "type": "bytes32"
        }
      ],
      "name": "isKnownRoot",
      "outputs": [
        {
          "internalType": "bool",
          "name": "",
          "type": "bool"
        }
      ],
      "stateMutability": "view",
      "type": "function"
    },
    {
      "inputs": [],
      "name": "nextIndex",
      "outputs": [
        {
          "internalType": "uint256",
          "name": "",
          "type": "uint256"
        }
      ],
      "stateMutability": "view",
      "type": "function"
    },
    {
      "inputs": [
        {
          "internalType": "bytes32",
          "name": "",
          "type": "bytes32"
        }
      ],
      "name": "nullifierHashes",
      "outputs": [
        {
          "internalType": "bool",
          "name": "",
          "type": "bool"
        }
      ],
      "stateMutability": "view",
      "type": "function"
    },
    {
      "inputs": [],
      "name": "operator",
      "outputs": [
        {
          "internalType": "address",
          "name": "",
          "type": "address"
        }
      ],
      "stateMutability": "view",
      "type": "function"
    },
    {
      "inputs": [
        {
          "internalType": "uint256",
          "name": "",
          "type": "uint256"
        }
      ],
      "name": "roots",
      "outputs": [
        {
          "internalType": "bytes32",
          "name": "",
          "type": "bytes32"
        }
      ],
      "stateMutability": "view",
      "type": "function"
    },
    {
      "inputs": [],
      "name": "verifier",
      "outputs": [
        {
          "internalType": "contract IVerifier",
          "name": "",
          "type": "address"
        }
      ],
      "stateMutability": "view",
      "type": "function"
    },
    {
      "inputs": [
        {
          "internalType": "uint256[2]",
          "name": "proofA",
          "type": "uint256[2]"
        },
        {
          "internalType": "uint256[2][2]",
          "name": "proofB",
          "type": "uint256[2][2]"
        },
        {
          "internalType": "uint256[2]",
          "name": "proofC",
          "type": "uint256[2]"
        },
        {
          "internalType": "bytes32",
          "name": "root",
          "type": "bytes32"
        },
        {
          "internalType": "bytes32",
          "name": "nullifierHash",
          "type": "bytes32"
        },
        {
          "internalType": "address payable",
          "name": "recipient",
          "type": "address"
        },
        {
          "internalType": "address payable",
          "name": "relayer",
          "type": "address"
        },
        {
          "internalType": "uint256",
          "name": "fee",
          "type": "uint256"
        }
      ],
      "name": "withdraw",
      "outputs": [],
      "stateMutability": "nonpayable",
      "type": "function"
    },
    {
      "inputs": [
        {
          "internalType": "uint256",
          "name": "",
          "type": "uint256"
        }
      ],
      "name": "zeros",
      "outputs": [
        {
          "internalType": "bytes32",
          "name": "",
          "type": "bytes32"
        }
      ],
      "stateMutability": "view",
      "type": "function"
    }
  ],
  "bytecode": "0x60e06040523480156200001157600080fd5b5060405162001229380380620012298339810160408190526200003491620001fe565b60008211620000895760405162461bcd60e51b815260206004820152601860248201527f44656e6f6d696e6174696f6e206d757374206265203e20300000000000000000604482015260640160405180910390fd5b6001600160a01b0384811660805283811660a05260c0839052600080546001600160a01b03191691831691909117815580607d8101558060696000015560015b601463ffffffff821610156200013a57620000e5828062000156565b915081607d8263ffffffff16601581106200010457620001046200025a565b015581606963ffffffff8316601481106200012357620001236200025a565b015580620001318162000270565b915050620000c9565b5062000147818062000156565b60035550620002ef9350505050565b60a05160408051808201825284815260208101849052905163014cf2b360e51b81526000926001600160a01b03169163299e5660916200019a9190600401620002a2565b602060405180830381865afa158015620001b8573d6000803e3d6000fd5b505050506040513d601f19601f82011682018060405250810190620001de9190620002d5565b9392505050565b6001600160a01b0381168114620001fb57600080fd5b50565b600080600080608085870312156200021557600080fd5b84516200022281620001e5565b60208601519094506200023581620001e5565b6040860151606087015191945092506200024f81620001e5565b939692955090935050565b634e487b7160e01b600052603260045260246000fd5b600063ffffffff8083168181036200029857634e487b7160e01b600052601160045260246000fd5b6001019392505050565b60408101818360005b6002811015620002cc578151835260209283019290910190600101620002ab565b50505092915050565b600060208284031215620002e857600080fd5b5051919050565b60805160a05160c051610ee76200034260003960008181610238015281816103910152818161059701526106f10152600081816103220152610a6701526000818161015a01526104bf0152610ee76000f3fe6080604052600436106100fe5760003560e01c8063b214faa511610095578063e829558811610064578063e8295588146102f0578063ed33639f14610310578063f178e47c14610344578063fc7e9c6f14610364578063fcc0be6b1461037a57600080fd5b8063b214faa51461027e578063ba70f75714610291578063c2b40ae4146102a6578063cd87a3b4146102c657600080fd5b80636d9833e3116100d15780636d9833e3146101d6578063839df945146101f65780638bca6d161461022657806390eeb02b1461026857600080fd5b806317cc915c146101035780632b7ac3f314610148578063570ca735146101945780636650aebb146101b4575b600080fd5b34801561010f57600080fd5b5061013361011e366004610ae4565b60686020526000908152604090205460ff1681565b60405190151581526020015b60405180910390f35b34801561015457600080fd5b5061017c7f000000000000000000000000000000000000000000000000000000000000000081565b6040516001600160a01b03909116815260200161013f565b3480156101a057600080fd5b5060005461017c906001600160a01b031681565b3480156101c057600080fd5b506101d46101cf366004610b2a565b61038f565b005b3480156101e257600080fd5b506101336101f1366004610ae4565b61068d565b34801561020257600080fd5b50610133610211366004610ae4565b60676020526000908152604090205460ff1681565b34801561023257600080fd5b5061025a7f000000000000000000000000000000000000000000000000000000000000000081565b60405190815260200161013f565b34801561027457600080fd5b5061025a60015481565b6101d461028c366004610ae4565b6106ef565b34801561029d57600080fd5b5061025a61087a565b3480156102b257600080fd5b5061025a6102c1366004610ae4565b610898565b3480156102d257600080fd5b506102db606481565b60405163ffffffff909116815260200161013f565b3480156102fc57600080fd5b5061025a61030b366004610ae4565b6108af565b34801561031c57600080fd5b5061017c7f000000000000000000000000000000000000000000000000000000000000000081565b34801561035057600080fd5b5061025a61035f366004610ae4565b6108bf565b34801561037057600080fd5b5061025a60025481565b34801561038657600080fd5b506102db601481565b7f000000000000000000000000000000000000000000000000000000000000000081106104035760405162461bcd60e51b815260206004820152601860248201527f46656520657863656564732064656e6f6d696e6174696f6e000000000000000060448201526064015b60405180910390fd5b60008481526068602052604090205460ff16156104525760405162461bcd60e51b815260206004820152600d60248201526c105b1c9958591e481cdc195b9d609a1b60448201526064016103fa565b61045b8561068d565b6104965760405162461bcd60e51b815260206004820152600c60248201526b155b9adb9bdddb881c9bdbdd60a21b60448201526064016103fa565b604080518082018252868152602081018690529051637ae4eb4f60e11b81526001600160a01b037f0000000000000000000000000000000000000000000000000000000000000000169163f5c9d69e916104f8918c918c918c91600401610bba565b602060405180830381865afa158015610515573d6000803e3d6000fd5b505050506040513d601f19601f820116820180604052508101906105399190610c28565b6105785760405162461bcd60e51b815260206004820152601060248201526f24b73b30b634b2102d2590383937b7b360811b60448201526064016103fa565b6000848152606860205260408120805460ff191660011790556105bb827f0000000000000000000000000000000000000000000000000000000000000000610c67565b6040519091506001600160a01b0385169082156108fc029083906000818181858888f193505050501580156105f4573d6000803e3d6000fd5b508115610633576040516001600160a01b0384169083156108fc029084906000818181858888f19350505050158015610631573d6000803e3d6000fd5b505b604080516001600160a01b03868116825260208201889052918101849052908416907fe9e508bad6d4c3227e881ca19068f099da81b5164dd6d62b2eaf1e8bc6c349319060600160405180910390a2505050505050505050565b60008161069c57506000919050565b6001545b600381606481106106b3576106b3610c7a565b015483036106c45750600192915050565b806000036106d0575060645b806106da81610c90565b91505060015481036106a05750600092915050565b7f000000000000000000000000000000000000000000000000000000000000000034146107515760405162461bcd60e51b815260206004820152601060248201526f15dc9bdb99c8161390c8185b5bdd5b9d60821b60448201526064016103fa565b60008181526067602052604090205460ff16156107b05760405162461bcd60e51b815260206004820152601960248201527f436f6d6d69746d656e7420616c7265616479206578697374730000000000000060448201526064016103fa565b6107bc60146002610d8b565b600254106108025760405162461bcd60e51b815260206004820152601360248201527213595c9adb19481d1c9959481a5cc8199d5b1b606a1b60448201526064016103fa565b600061080d826108cf565b60008381526067602052604090819020805460ff191660011790555190915082907fa945e51eec50ab98c161376f0db4cf2aeba3ec92755fe2fcd388bdbbb80ff1969061086e908490429063ffffffff929092168252602082015260400190565b60405180910390a25050565b600060036001546064811061089157610891610c7a565b0154905090565b600381606481106108a857600080fd5b0154905081565b607d81601581106108a857600080fd5b606981601481106108a857600080fd5b600280546000916108e290601490610d8b565b8163ffffffff16106109255760405162461bcd60e51b815260206004820152600c60248201526b151c9959481a5cc8199d5b1b60a21b60448201526064016103fa565b8083600080805b601463ffffffff821610156109e057610946600286610db3565b63ffffffff1660000361099457839250607d8163ffffffff166015811061096f5761096f610c7a565b015491508360698263ffffffff166014811061098d5761098d610c7a565b01556109b5565b60698163ffffffff16601481106109ad576109ad610c7a565b015492508391505b6109bf8383610a3b565b93506109cc600286610dd6565b9450806109d881610df9565b91505061092c565b50600180546000916064916109f491610e1c565b6109fe9190610e2f565b600181905590508360038260648110610a1957610a19610c7a565b0155610a26866001610e43565b63ffffffff1660025550939695505050505050565b60408051808201825283815260208101839052905163014cf2b360e51b81526000916001600160a01b037f0000000000000000000000000000000000000000000000000000000000000000169163299e566091610a9a91600401610e67565b602060405180830381865afa158015610ab7573d6000803e3d6000fd5b505050506040513d601f19601f82011682018060405250810190610adb9190610e98565b90505b92915050565b600060208284031215610af657600080fd5b5035919050565b8060408101831015610ade57600080fd5b80356001600160a01b0381168114610b2557600080fd5b919050565b6000806000806000806000806101a0898b031215610b4757600080fd5b610b518a8a610afd565b975060c089018a811115610b6457600080fd5b60408a019750610b748b82610afd565b96505061010089013594506101208901359350610b946101408a01610b0e565b9250610ba36101608a01610b0e565b915061018089013590509295985092959890939650565b61014081016040808784378083018660005b6002811015610be957838284379183019190830190600101610bcc565b505050808560c08501375061010082018360005b6002811015610c1c578151835260209283019290910190600101610bfd565b50505095945050505050565b600060208284031215610c3a57600080fd5b81518015158114610c4a57600080fd5b9392505050565b634e487b7160e01b600052601160045260246000fd5b81810381811115610ade57610ade610c51565b634e487b7160e01b600052603260045260246000fd5b600081610c9f57610c9f610c51565b506000190190565b600181815b80851115610ce2578160001904821115610cc857610cc8610c51565b80851615610cd557918102915b93841c9390800290610cac565b509250929050565b600082610cf957506001610ade565b81610d0657506000610ade565b8160018114610d1c5760028114610d2657610d42565b6001915050610ade565b60ff841115610d3757610d37610c51565b50506001821b610ade565b5060208310610133831016604e8410600b8410161715610d65575081810a610ade565b610d6f8383610ca7565b8060001904821115610d8357610d83610c51565b029392505050565b6000610adb63ffffffff841683610cea565b634e487b7160e01b600052601260045260246000fd5b600063ffffffff80841680610dca57610dca610d9d565b92169190910692915050565b600063ffffffff80841680610ded57610ded610d9d565b92169190910492915050565b600063ffffffff808316818103610e1257610e12610c51565b6001019392505050565b80820180821115610ade57610ade610c51565b600082610e3e57610e3e610d9d565b500690565b63ffffffff818116838216019080821115610e6057610e60610c51565b5092915050565b60408101818360005b6002811015610e8f578151835260209283019290910190600101610e70565b50505092915050565b600060208284031215610eaa57600080fd5b505191905056fea2646970667358221220f573522788b71943e06723fcfe2eca04d2d643769e2361a1b51913f0a80e417f64736f6c63430008140033",
  "linkReferences": {},
  "deployedLinkReferences": {}
}