{
  "_format": "hh-sol-artifact-1",
  "contractName": "PoseidonHasher",
  "sourceName": "contracts/PoseidonHasher.sol",
  "abi": [
    {
      "inputs": [
        {
          "internalType": "bytes32[2]",
          "name": "inputs",
          "type": "bytes32[2]"
        }
      ],
      "name": "poseidon",
      "outputs": [
        {
          "internalType": "bytes32",
          "name": "",
          "type": "bytes32"
        }
      ],
      "stateMutability": "pure",
      "type": "function"
    }
  ],
  "bytecode": "0x608060405234801561001057600080fd5b5060d68061001f6000396000f3fe6080604052348015600f57600080fd5b506004361060285760003560e01c8063299e566014602d575b600080fd5b60686038366004607a565b60408051823560208083019190915292830135818301528151808203830181526060909101909152805191012090565b60405190815260200160405180910390f35b600060408284031215608b57600080fd5b82604083011115609a57600080fd5b5091905056fea2646970667358221220d140dcd29c7478ddcecc3f4d5d88818070bc15af953fbf73cc36d496b5c0afc764736f6c63430008140033",
  "linkReferences": {},
  "deployedLinkReferences": {}
}